{
  "contractName": "Stock",
  "abi": [
    {
      "inputs": [
        {
          "internalType": "address",
          "name": "us",
          "type": "address"
        }
      ],
      "payable": false,
      "stateMutability": "nonpayable",
      "type": "constructor"
    },
    {
      "constant": true,
      "inputs": [
        {
          "internalType": "uint256",
          "name": "",
          "type": "uint256"
        }
      ],
      "name": "Buy",
      "outputs": [
        {
          "internalType": "string",
          "name": "user_account",
          "type": "string"
        },
        {
          "internalType": "string",
          "name": "stock_name",
          "type": "string"
        },
        {
          "internalType": "string",
          "name": "stock_price",
          "type": "string"
        },
        {
          "internalType": "uint256",
          "name": "stock_number",
          "type": "uint256"
        },
        {
          "internalType": "uint256",
          "name": "stock_calltime",
          "type": "uint256"
        }
      ],
      "payable": false,
      "stateMutability": "view",
      "type": "function"
    },
    {
      "constant": true,
      "inputs": [],
      "name": "Buy_length",
      "outputs": [
        {
          "internalType": "uint256",
          "name": "",
          "type": "uint256"
        }
      ],
      "payable": false,
      "stateMutability": "view",
      "type": "function"
    },
    {
      "constant": true,
      "inputs": [
        {
          "internalType": "uint256",
          "name": "",
          "type": "uint256"
        }
      ],
      "name": "Like",
      "outputs": [
        {
          "internalType": "string",
          "name": "user_account",
          "type": "string"
        },
        {
          "internalType": "string",
          "name": "stock_name",
          "type": "string"
        },
        {
          "internalType": "string",
          "name": "stock_price",
          "type": "string"
        },
        {
          "internalType": "uint256",
          "name": "stock_calltime",
          "type": "uint256"
        }
      ],
      "payable": false,
      "stateMutability": "view",
      "type": "function"
    },
    {
      "constant": true,
      "inputs": [],
      "name": "Us",
      "outputs": [
        {
          "internalType": "contract User",
          "name": "",
          "type": "address"
        }
      ],
      "payable": false,
      "stateMutability": "view",
      "type": "function"
    },
    {
      "constant": true,
      "inputs": [],
      "name": "buycount",
      "outputs": [
        {
          "internalType": "uint256",
          "name": "",
          "type": "uint256"
        }
      ],
      "payable": false,
      "stateMutability": "view",
      "type": "function"
    },
    {
      "constant": true,
      "inputs": [],
      "name": "finalmoney",
      "outputs": [
        {
          "internalType": "uint256",
          "name": "",
          "type": "uint256"
        }
      ],
      "payable": false,
      "stateMutability": "view",
      "type": "function"
    },
    {
      "constant": true,
      "inputs": [],
      "name": "likecount",
      "outputs": [
        {
          "internalType": "uint256",
          "name": "",
          "type": "uint256"
        }
      ],
      "payable": false,
      "stateMutability": "view",
      "type": "function"
    },
    {
      "constant": false,
      "inputs": [
        {
          "internalType": "string",
          "name": "_useraccount",
          "type": "string"
        },
        {
          "internalType": "string",
          "name": "stock_name",
          "type": "string"
        },
        {
          "internalType": "string",
          "name": "stock_price",
          "type": "string"
        }
      ],
      "name": "UserLike",
      "outputs": [],
      "payable": false,
      "stateMutability": "nonpayable",
      "type": "function"
    },
    {
      "constant": false,
      "inputs": [
        {
          "internalType": "string",
          "name": "_useraccount",
          "type": "string"
        },
        {
          "internalType": "uint256",
          "name": "user_now_money",
          "type": "uint256"
        },
        {
          "internalType": "string",
          "name": "stock_name",
          "type": "string"
        },
        {
          "internalType": "string",
          "name": "stock_price",
          "type": "string"
        },
        {
          "internalType": "uint256",
          "name": "stock_number",
          "type": "uint256"
        }
      ],
      "name": "User_Can_Buy_OR_NOT",
      "outputs": [
        {
          "internalType": "bool",
          "name": "",
          "type": "bool"
        },
        {
          "internalType": "uint256",
          "name": "",
          "type": "uint256"
        },
        {
          "internalType": "uint256",
          "name": "",
          "type": "uint256"
        }
      ],
      "payable": false,
      "stateMutability": "nonpayable",
      "type": "function"
    },
    {
      "constant": true,
      "inputs": [],
      "name": "User_Can_Buy_OR_NOT_Result",
      "outputs": [
        {
          "internalType": "bool",
          "name": "",
          "type": "bool"
        },
        {
          "internalType": "uint256",
          "name": "",
          "type": "uint256"
        },
        {
          "internalType": "uint256",
          "name": "",
          "type": "uint256"
        }
      ],
      "payable": false,
      "stateMutability": "view",
      "type": "function"
    },
    {
      "constant": false,
      "inputs": [
        {
          "internalType": "string",
          "name": "_useraccount",
          "type": "string"
        },
        {
          "internalType": "string",
          "name": "stock_name",
          "type": "string"
        },
        {
          "internalType": "string",
          "name": "stock_price",
          "type": "string"
        },
        {
          "internalType": "uint256",
          "name": "stock_number",
          "type": "uint256"
        }
      ],
      "name": "User_Buy",
      "outputs": [
        {
          "internalType": "uint256",
          "name": "",
          "type": "uint256"
        }
      ],
      "payable": false,
      "stateMutability": "nonpayable",
      "type": "function"
    },
    {
      "constant": true,
      "inputs": [
        {
          "internalType": "string",
          "name": "_useraccount",
          "type": "string"
        }
      ],
      "name": "user_get_finalmoney",
      "outputs": [
        {
          "internalType": "uint256",
          "name": "",
          "type": "uint256"
        }
      ],
      "payable": false,
      "stateMutability": "view",
      "type": "function"
    },
    {
      "constant": true,
      "inputs": [],
      "name": "howlong",
      "outputs": [
        {
          "internalType": "uint256",
          "name": "",
          "type": "uint256"
        }
      ],
      "payable": false,
      "stateMutability": "view",
      "type": "function"
    },
    {
      "constant": false,
      "inputs": [
        {
          "internalType": "string",
          "name": "_useraccount",
          "type": "string"
        },
        {
          "internalType": "uint256",
          "name": "user_now_money",
          "type": "uint256"
        },
        {
          "internalType": "string",
          "name": "stock_name",
          "type": "string"
        },
        {
          "internalType": "string",
          "name": "stock_price",
          "type": "string"
        },
        {
          "internalType": "uint256",
          "name": "stock_number",
          "type": "uint256"
        }
      ],
      "name": "User_Can_Sell_OR_NOT",
      "outputs": [
        {
          "internalType": "bool",
          "name": "",
          "type": "bool"
        },
        {
          "internalType": "uint256",
          "name": "",
          "type": "uint256"
        },
        {
          "internalType": "uint256",
          "name": "",
          "type": "uint256"
        }
      ],
      "payable": false,
      "stateMutability": "nonpayable",
      "type": "function"
    },
    {
      "constant": true,
      "inputs": [],
      "name": "User_Can_SELL_OR_NOT_Result",
      "outputs": [
        {
          "internalType": "bool",
          "name": "",
          "type": "bool"
        },
        {
          "internalType": "uint256",
          "name": "",
          "type": "uint256"
        },
        {
          "internalType": "uint256",
          "name": "",
          "type": "uint256"
        }
      ],
      "payable": false,
      "stateMutability": "view",
      "type": "function"
    },
    {
      "constant": false,
      "inputs": [
        {
          "internalType": "string",
          "name": "_useraccount",
          "type": "string"
        },
        {
          "internalType": "string",
          "name": "stock_name",
          "type": "string"
        },
        {
          "internalType": "string",
          "name": "stock_price",
          "type": "string"
        },
        {
          "internalType": "uint256",
          "name": "stock_number",
          "type": "uint256"
        }
      ],
      "name": "User_Sell",
      "outputs": [
        {
          "internalType": "uint256",
          "name": "",
          "type": "uint256"
        }
      ],
      "payable": false,
      "stateMutability": "nonpayable",
      "type": "function"
    }
  ],
  "bytecode": "0x6080604052600060015560006002556001600460006101000a81548160ff0219169083151502179055506001600460016101000a81548160ff0219169083151502179055506001600460026101000a81548160ff021916908315150217905550600060085534801561007057600080fd5b506040516126943803806126948339818101604052602081101561009357600080fd5b8101908080519060200190929190505050806000806101000a81548173ffffffffffffffffffffffffffffffffffffffff021916908373ffffffffffffffffffffffffffffffffffffffff160217905550506125a0806100f46000396000f3fe608060405234801561001057600080fd5b50600436106101005760003560e01c8063ac73244811610097578063c351d98611610066578063c351d98614610d52578063cbdf181614610d70578063e8cbe74614610e3f578063ed3a4ac91461104657610100565b8063ac73244814610aa9578063b1e896e814610ccc578063b268a97c14610d16578063bf3d28ab14610d3457610100565b8063596abb67116100d3578063596abb6714610824578063927f20cd146108425780639cffc2f714610872578063a75939b5146108a257610100565b8063094de57a146101055780631a4090a6146102ee5780633e32821814610511578063447c5d871461069e575b600080fd5b6102ec6004803603606081101561011b57600080fd5b810190808035906020019064010000000081111561013857600080fd5b82018360208201111561014a57600080fd5b8035906020019184600183028401116401000000008311171561016c57600080fd5b91908080601f016020809104026020016040519081016040528093929190818152602001838380828437600081840152601f19601f820116905080830192505050505050509192919290803590602001906401000000008111156101cf57600080fd5b8201836020820111156101e157600080fd5b8035906020019184600183028401116401000000008311171561020357600080fd5b91908080601f016020809104026020016040519081016040528093929190818152602001838380828437600081840152601f19601f8201169050808301925050505050505091929192908035906020019064010000000081111561026657600080fd5b82018360208201111561027857600080fd5b8035906020019184600183028401116401000000008311171561029a57600080fd5b91908080601f016020809104026020016040519081016040528093929190818152602001838380828437600081840152601f19601f820116905080830192505050505050509192919290505050611064565b005b6104e9600480360360a081101561030457600080fd5b810190808035906020019064010000000081111561032157600080fd5b82018360208201111561033357600080fd5b8035906020019184600183028401116401000000008311171561035557600080fd5b91908080601f016020809104026020016040519081016040528093929190818152602001838380828437600081840152601f19601f82011690508083019250505050505050919291929080359060200190929190803590602001906401000000008111156103c257600080fd5b8201836020820111156103d457600080fd5b803590602001918460018302840111640100000000831117156103f657600080fd5b91908080601f016020809104026020016040519081016040528093929190818152602001838380828437600081840152601f19601f8201169050808301925050505050505091929192908035906020019064010000000081111561045957600080fd5b82018360208201111561046b57600080fd5b8035906020019184600183028401116401000000008311171561048d57600080fd5b91908080601f016020809104026020016040519081016040528093929190818152602001838380828437600081840152601f19601f8201169050808301925050505050505091929192908035906020019092919050505061123a565b6040518084151515158152602001838152602001828152602001935050505060405180910390f35b61053d6004803603602081101561052757600080fd5b81019080803590602001909291905050506113fa565b60405180806020018060200180602001868152602001858152602001848103845289818151815260200191508051906020019080838360005b83811015610591578082015181840152602081019050610576565b50505050905090810190601f1680156105be5780820380516001836020036101000a031916815260200191505b50848103835288818151815260200191508051906020019080838360005b838110156105f75780820151818401526020810190506105dc565b50505050905090810190601f1680156106245780820380516001836020036101000a031916815260200191505b50848103825287818151815260200191508051906020019080838360005b8381101561065d578082015181840152602081019050610642565b50505050905090810190601f16801561068a5780820380516001836020036101000a031916815260200191505b509850505050505050505060405180910390f35b6106ca600480360360208110156106b457600080fd5b81019080803590602001909291905050506115f8565b60405180806020018060200180602001858152602001848103845288818151815260200191508051906020019080838360005b838110156107185780820151818401526020810190506106fd565b50505050905090810190601f1680156107455780820380516001836020036101000a031916815260200191505b50848103835287818151815260200191508051906020019080838360005b8381101561077e578082015181840152602081019050610763565b50505050905090810190601f1680156107ab5780820380516001836020036101000a031916815260200191505b50848103825286818151815260200191508051906020019080838360005b838110156107e45780820151818401526020810190506107c9565b50505050905090810190601f1680156108115780820380516001836020036101000a031916815260200191505b5097505050505050505060405180910390f35b61082c6117f0565b6040518082815260200191505060405180910390f35b61084a6117f6565b6040518084151515158152602001838152602001828152602001935050505060405180910390f35b61087a61181c565b6040518084151515158152602001838152602001828152602001935050505060405180910390f35b610a93600480360360808110156108b857600080fd5b81019080803590602001906401000000008111156108d557600080fd5b8201836020820111156108e757600080fd5b8035906020019184600183028401116401000000008311171561090957600080fd5b91908080601f016020809104026020016040519081016040528093929190818152602001838380828437600081840152601f19601f8201169050808301925050505050505091929192908035906020019064010000000081111561096c57600080fd5b82018360208201111561097e57600080fd5b803590602001918460018302840111640100000000831117156109a057600080fd5b91908080601f016020809104026020016040519081016040528093929190818152602001838380828437600081840152601f19601f82011690508083019250505050505050919291929080359060200190640100000000811115610a0357600080fd5b820183602082011115610a1557600080fd5b80359060200191846001830284011164010000000083111715610a3757600080fd5b91908080601f016020809104026020016040519081016040528093929190818152602001838380828437600081840152601f19601f82011690508083019250505050505050919291929080359060200190929190505050611842565b6040518082815260200191505060405180910390f35b610ca4600480360360a0811015610abf57600080fd5b8101908080359060200190640100000000811115610adc57600080fd5b820183602082011115610aee57600080fd5b80359060200191846001830284011164010000000083111715610b1057600080fd5b91908080601f016020809104026020016040519081016040528093929190818152602001838380828437600081840152601f19601f8201169050808301925050505050505091929192908035906020019092919080359060200190640100000000811115610b7d57600080fd5b820183602082011115610b8f57600080fd5b80359060200191846001830284011164010000000083111715610bb157600080fd5b91908080601f016020809104026020016040519081016040528093929190818152602001838380828437600081840152601f19601f82011690508083019250505050505050919291929080359060200190640100000000811115610c1457600080fd5b820183602082011115610c2657600080fd5b80359060200191846001830284011164010000000083111715610c4857600080fd5b91908080601f016020809104026020016040519081016040528093929190818152602001838380828437600081840152601f19601f82011690508083019250505050505050919291929080359060200190929190505050611b67565b6040518084151515158152602001838152602001828152602001935050505060405180910390f35b610cd461206e565b604051808273ffffffffffffffffffffffffffffffffffffffff1673ffffffffffffffffffffffffffffffffffffffff16815260200191505060405180910390f35b610d1e612093565b6040518082815260200191505060405180910390f35b610d3c612099565b6040518082815260200191505060405180910390f35b610d5a6120a3565b6040518082815260200191505060405180910390f35b610e2960048036036020811015610d8657600080fd5b8101908080359060200190640100000000811115610da357600080fd5b820183602082011115610db557600080fd5b80359060200191846001830284011164010000000083111715610dd757600080fd5b91908080601f016020809104026020016040519081016040528093929190818152602001838380828437600081840152601f19601f8201169050808301925050505050505091929192905050506120a9565b6040518082815260200191505060405180910390f35b61103060048036036080811015610e5557600080fd5b8101908080359060200190640100000000811115610e7257600080fd5b820183602082011115610e8457600080fd5b80359060200191846001830284011164010000000083111715610ea657600080fd5b91908080601f016020809104026020016040519081016040528093929190818152602001838380828437600081840152601f19601f82011690508083019250505050505050919291929080359060200190640100000000811115610f0957600080fd5b820183602082011115610f1b57600080fd5b80359060200191846001830284011164010000000083111715610f3d57600080fd5b91908080601f016020809104026020016040519081016040528093929190818152602001838380828437600081840152601f19601f82011690508083019250505050505050919291929080359060200190640100000000811115610fa057600080fd5b820183602082011115610fb257600080fd5b80359060200191846001830284011164010000000083111715610fd457600080fd5b91908080601f016020809104026020016040519081016040528093929190818152602001838380828437600081840152601f19601f820116905080830192505050505050509192919290803590602001909291905050506120b5565b6040518082815260200191505060405180910390f35b61104e6124c0565b6040518082815260200191505060405180910390f35b60008060009054906101000a900473ffffffffffffffffffffffffffffffffffffffff1673ffffffffffffffffffffffffffffffffffffffff166370e19a36856040518263ffffffff1660e01b81526004018080602001828103825283818151815260200191508051906020019080838360005b838110156110f35780820151818401526020810190506110d8565b50505050905090810190601f1680156111205780820380516001836020036101000a031916815260200191505b509250505060206040518083038186803b15801561113d57600080fd5b505afa158015611151573d6000803e3d6000fd5b505050506040513d602081101561116757600080fd5b810190808051906020019092919050505090506001151581151514156112345760405180608001604052808581526020018481526020018381526020014281525060096000600154815260200190815260200160002060008201518160000190805190602001906111d99291906124c6565b5060208201518160010190805190602001906111f69291906124c6565b5060408201518160020190805190602001906112139291906124c6565b50606082015181600301559050506001600081548092919060010191905055505b50505050565b60008060006103e8870260038190555060608590506000809050600080905060008851905060008090505b84518110156112fa57603085828151811061127c57fe5b602001015160f81c60f81b60f81c60ff16101580156112b8575060398582815181106112a457fe5b602001015160f81c60f81b60f81c60ff1611155b156112ed5760308582815181106112cb57fe5b602001015160f81c60f81b60f81c0360ff16600a850201935082806001019350505b8080600101915050611265565b50600080600090505b855181101561134957602e86828151811061131a57fe5b602001015160f81c60f81b60f81c60ff16141561133c57600181019150611349565b8080600101915050611303565b5081831415611359576064840293505b6001818303141561136b57600a840293505b6002818303141561137d576001840293505b88840260058190555060035460055411156113b2576000600460006101000a81548160ff0219169083151502179055506113ce565b6001600460006101000a81548160ff0219169083151502179055505b600460009054906101000a900460ff166003546005549750975097505050505050955095509592505050565b600a602052806000526040600020600091509050806000018054600181600116156101000203166002900480601f0160208091040260200160405190810160405280929190818152602001828054600181600116156101000203166002900480156114a65780601f1061147b576101008083540402835291602001916114a6565b820191906000526020600020905b81548152906001019060200180831161148957829003601f168201915b505050505090806001018054600181600116156101000203166002900480601f0160208091040260200160405190810160405280929190818152602001828054600181600116156101000203166002900480156115445780601f1061151957610100808354040283529160200191611544565b820191906000526020600020905b81548152906001019060200180831161152757829003601f168201915b505050505090806002018054600181600116156101000203166002900480601f0160208091040260200160405190810160405280929190818152602001828054600181600116156101000203166002900480156115e25780601f106115b7576101008083540402835291602001916115e2565b820191906000526020600020905b8154815290600101906020018083116115c557829003601f168201915b5050505050908060030154908060040154905085565b6009602052806000526040600020600091509050806000018054600181600116156101000203166002900480601f0160208091040260200160405190810160405280929190818152602001828054600181600116156101000203166002900480156116a45780601f10611679576101008083540402835291602001916116a4565b820191906000526020600020905b81548152906001019060200180831161168757829003601f168201915b505050505090806001018054600181600116156101000203166002900480601f0160208091040260200160405190810160405280929190818152602001828054600181600116156101000203166002900480156117425780601f1061171757610100808354040283529160200191611742565b820191906000526020600020905b81548152906001019060200180831161172557829003601f168201915b505050505090806002018054600181600116156101000203166002900480601f0160208091040260200160405190810160405280929190818152602001828054600181600116156101000203166002900480156117e05780601f106117b5576101008083540402835291602001916117e0565b820191906000526020600020905b8154815290600101906020018083116117c357829003601f168201915b5050505050908060030154905084565b60025481565b6000806000600460019054906101000a900460ff16600354600654925092509250909192565b6000806000600460009054906101000a900460ff16600354600554925092509250909192565b6000600654600354016007819055506103e86007548161185e57fe5b0460078190555060008090505b600854811015611b5957600a600082815260200190815260200160002060000160405160200180806020018281038252838181546001816001161561010002031660029004815260200191508054600181600116156101000203166002900480156119175780601f106118ec57610100808354040283529160200191611917565b820191906000526020600020905b8154815290600101906020018083116118fa57829003601f168201915b50509250505060405160208183030381529060405280519060200120866040516020018080602001828103825283818151815260200191508051906020019080838360005b8381101561197757808201518184015260208101905061195c565b50505050905090810190601f1680156119a45780820380516001836020036101000a031916815260200191505b509250505060405160208183030381529060405280519060200120148015611b135750600a60008281526020019081526020016000206001016040516020018080602001828103825283818154600181600116156101000203166002900481526020019150805460018160011615610100020316600290048015611a695780601f10611a3e57610100808354040283529160200191611a69565b820191906000526020600020905b815481529060010190602001808311611a4c57829003601f168201915b50509250505060405160208183030381529060405280519060200120856040516020018080602001828103825283818151815260200191508051906020019080838360005b83811015611ac9578082015181840152602081019050611aae565b50505050905090810190601f168015611af65780820380516001836020036101000a031916815260200191505b509250505060405160208183030381529060405280519060200120145b15611b4c5782600a60008381526020019081526020016000206003015403600a6000838152602001908152602001600020600301819055505b808060010191505061186b565b506007549050949350505050565b60008060006103e8870260038190555060608590506000809050600080905060008851905060008090505b8451811015611c27576030858281518110611ba957fe5b602001015160f81c60f81b60f81c60ff1610158015611be557506039858281518110611bd157fe5b602001015160f81c60f81b60f81c60ff1611155b15611c1a576030858281518110611bf857fe5b602001015160f81c60f81b60f81c0360ff16600a850201935082806001019350505b8080600101915050611b92565b50600080600090505b8551811015611c7657602e868281518110611c4757fe5b602001015160f81c60f81b60f81c60ff161415611c6957600181019150611c76565b8080600101915050611c30565b5081831415611c86576064840293505b60018183031415611c9857600a840293505b60028183031415611caa576001840293505b888402600681905550600080905060008090505b600854811015611fda57600a60008281526020019081526020016000206000016040516020018080602001828103825283818154600181600116156101000203166002900481526020019150805460018160011615610100020316600290048015611d6a5780601f10611d3f57610100808354040283529160200191611d6a565b820191906000526020600020905b815481529060010190602001808311611d4d57829003601f168201915b505092505050604051602081830303815290604052805190602001208f6040516020018080602001828103825283818151815260200191508051906020019080838360005b83811015611dca578082015181840152602081019050611daf565b50505050905090810190601f168015611df75780820380516001836020036101000a031916815260200191505b509250505060405160208183030381529060405280519060200120148015611f665750600a60008281526020019081526020016000206001016040516020018080602001828103825283818154600181600116156101000203166002900481526020019150805460018160011615610100020316600290048015611ebc5780601f10611e9157610100808354040283529160200191611ebc565b820191906000526020600020905b815481529060010190602001808311611e9f57829003601f168201915b505092505050604051602081830303815290604052805190602001208d6040516020018080602001828103825283818151815260200191508051906020019080838360005b83811015611f1c578082015181840152602081019050611f01565b50505050905090810190601f168015611f495780820380516001836020036101000a031916815260200191505b509250505060405160208183030381529060405280519060200120145b15611fb1578a600a60008381526020019081526020016000206003015410611fac5781806001019250506001600460016101000a81548160ff0219169083151502179055505b611fcd565b6000600460016101000a81548160ff0219169083151502179055505b8080600101915050611cbe565b5060008114612025576001600460016101000a81548160ff021916908315150217905550600460019054906101000a900460ff16600354600654985098509850505050505050612063565b6000600460016101000a81548160ff021916908315150217905550600460019054906101000a900460ff166003546006549850985098505050505050505b955095509592505050565b6000809054906101000a900473ffffffffffffffffffffffffffffffffffffffff1681565b60085481565b6000600854905090565b60015481565b60006007549050919050565b6000600554600354036007819055506103e8600754816120d157fe5b04600781905550600080905060008090505b6008548110156123d557600a6000828152602001908152602001600020600001604051602001808060200182810382528381815460018160011615610100020316600290048152602001915080546001816001161561010002031660029004801561218f5780601f106121645761010080835404028352916020019161218f565b820191906000526020600020905b81548152906001019060200180831161217257829003601f168201915b50509250505060405160208183030381529060405280519060200120876040516020018080602001828103825283818151815260200191508051906020019080838360005b838110156121ef5780820151818401526020810190506121d4565b50505050905090810190601f16801561221c5780820380516001836020036101000a031916815260200191505b50925050506040516020818303038152906040528051906020012014801561238b5750600a600082815260200190815260200160002060010160405160200180806020018281038252838181546001816001161561010002031660029004815260200191508054600181600116156101000203166002900480156122e15780601f106122b6576101008083540402835291602001916122e1565b820191906000526020600020905b8154815290600101906020018083116122c457829003601f168201915b50509250505060405160208183030381529060405280519060200120866040516020018080602001828103825283818151815260200191508051906020019080838360005b83811015612341578082015181840152602081019050612326565b50505050905090810190601f16801561236e5780820380516001836020036101000a031916815260200191505b509250505060405160208183030381529060405280519060200120145b156123c8576001915083600a60008381526020019081526020016000206003015401600a6000838152602001908152602001600020600301819055505b80806001019150506120e3565b506000151581151514156124b2576040518060a0016040528087815260200186815260200185815260200184815260200142815250600a60006002548152602001908152602001600020600082015181600001908051906020019061243b9291906124c6565b5060208201518160010190805190602001906124589291906124c6565b5060408201518160020190805190602001906124759291906124c6565b5060608201518160030155608082015181600401559050506008600081548092919060010191905055506002600081548092919060010191905055505b600754915050949350505050565b60075481565b828054600181600116156101000203166002900490600052602060002090601f016020900481019282601f1061250757805160ff1916838001178555612535565b82800160010185558215612535579182015b82811115612534578251825591602001919060010190612519565b5b5090506125429190612546565b5090565b61256891905b8082111561256457600081600090555060010161254c565b5090565b9056fea265627a7a72315820af3fa49b1a502baf34d8c3edbcb08451ce5acd0eb0404d56d8276f20350bd68964736f6c63430005100032",
  "source": "pragma solidity >=0.4.22 <0.9.0;\n\nimport \"./User.sol\";\n\ncontract Stock{\n    User public Us;\n    uint public likecount=0; //\n    uint public buycount=0;//\n    uint nowmoney; //\n    bool success_or_not=true; //\n    bool successhave_or_not=true; //\n\n    bool have=true; //\n    uint finalcost; //\n    uint finalsell; //\n\n    uint public finalmoney; //\n    uint public Buy_length=0; //\n\n\n    struct UserLikeStock{ //\n        string user_account; //\n        string stock_name; //\n        string stock_price; //\n        uint stock_calltime; //\n    }\n    \n    struct UserStock{ //\n        string user_account; //\n        string stock_name; //\n        string stock_price; //\n        uint stock_number; //\n        uint stock_calltime; //\n    }\n\n    constructor(address us)public{\n        Us=User(us);\n    }\n\n    mapping(uint=> UserLikeStock) public Like;\n    mapping(uint=> UserStock) public Buy;\n\n    //\n    function UserLike(string memory _useraccount,string memory stock_name,string memory stock_price) public {\n        bool exist;\n        exist=Us.user_IsExist(_useraccount);\n        if(exist==true){\n            Like[likecount]=UserLikeStock(_useraccount,stock_name,stock_price,block.timestamp);\n            likecount++;\n        }\n    }   \n\n\n    //\n    function User_Can_Buy_OR_NOT(string memory _useraccount,uint user_now_money,string memory stock_name,string memory stock_price,uint256 stock_number) public returns(bool,uint,uint){\n        //bool success_or_not=true;\n        //nowmoney=Us.user_get_money(_useraccount);\n        nowmoney=user_now_money*1000; //*1000\n        bytes memory b = bytes(stock_price);\n        uint result = 0; //\n        uint count=0;\n        uint long=bytes(stock_price).length;\n        for(uint i = 0; i < b.length; i++) {\n            if(uint8(b[i]) >= 48 && uint8(b[i]) <= 57) {\n                result = result * 10 + (uint8(b[i]) - 48);\n                count ++;\n            }\n        }\n        uint which;\n        for(uint i = 0; i < b.length; i++) {\n            if(uint8(b[i]) ==46) {\n                which=i+1;\n                break;\n            }\n        }\n        if(count==long){\n            result=result*100;\n        }\n        if((long-which)==1){\n             result=result*10;\n\n        }\n        if((long-which)==2){\n            result=result*1;\n        }\n\n        finalcost=result*stock_number;//\n        if(finalcost>nowmoney){ //\n            success_or_not=false ;\n        }\n        else{\n            success_or_not=true;\n        }\n        \n        return (success_or_not,nowmoney,finalcost);\n    } \n    //\n    function User_Can_Buy_OR_NOT_Result() public view returns(bool,uint,uint){ //\n        return (success_or_not,nowmoney,finalcost);\n    }\n\n    //\n    function User_Buy(string memory _useraccount,string memory stock_name,string memory stock_price,uint256 stock_number) public  returns(uint){\n        finalmoney=nowmoney-finalcost;\n        finalmoney=finalmoney/1000;\n        bool havestock=false;\n        for(uint i=0;i<Buy_length;i++){\n            if((keccak256(abi.encode(_useraccount))==keccak256(abi.encode(Buy[i].user_account)))&& (keccak256(abi.encode(stock_name))==keccak256(abi.encode(Buy[i].stock_name)))){\n                havestock=true;\n                Buy[i].stock_number=Buy[i].stock_number+stock_number;\n            }\n        }\n        if(havestock==false){\n            Buy[buycount]=UserStock(_useraccount,stock_name,stock_price,stock_number,block.timestamp);\n            Buy_length++;\n            buycount++;\n        }\n        return finalmoney;\n    }\n\n    //\n    function user_get_finalmoney(string memory _useraccount) public  view returns(uint){\n       \n        return finalmoney;\n    }\n\n    //BUY\n    function howlong() public view returns(uint){\n        return Buy_length;\n    }\n\n    //\n    function User_Can_Sell_OR_NOT(string memory _useraccount,uint user_now_money,string memory stock_name,string memory stock_price,uint256 stock_number) public  returns(bool,uint,uint){ \n        nowmoney=user_now_money*1000; //*1000\n        bytes memory b = bytes(stock_price);\n        uint result = 0; //\n        uint count=0;\n        uint long=bytes(stock_price).length;\n        for(uint i = 0; i < b.length; i++) {\n            if(uint8(b[i]) >= 48 && uint8(b[i]) <= 57) {\n                result = result * 10 + (uint8(b[i]) - 48);\n                count ++;\n            }\n        }\n        uint which;\n        for(uint i = 0; i < b.length; i++) {\n            if(uint8(b[i]) ==46) {\n                which=i+1;\n                break;\n            }\n        }\n        if(count==long){\n            result=result*100;\n        }\n        if((long-which)==1){\n             result=result*10;\n\n        }\n        if((long-which)==2){\n            result=result*1;\n        }\n\n        finalsell=result*stock_number;//\n\n        //\n        uint count2=0;\n        for(uint i=0;i<Buy_length;i++){\n            if((keccak256(abi.encode(_useraccount))==keccak256(abi.encode(Buy[i].user_account)))&& (keccak256(abi.encode(stock_name))==keccak256(abi.encode(Buy[i].stock_name)))){\n                //count++;\n                \n                // \n                if(Buy[i].stock_number>=stock_number){\n                    count2++;\n                    successhave_or_not=true;\n                }\n                \n            }\n            else{\n                successhave_or_not=false;\n            }\n        }\n\n        if(count2!=0){\n            successhave_or_not=true;\n            return (successhave_or_not,nowmoney,finalsell);\n        }\n        else{\n            successhave_or_not=false;\n            return (successhave_or_not,nowmoney,finalsell);\n        }\n    }\n\n    function User_Can_SELL_OR_NOT_Result() public view returns(bool,uint,uint){\n        return (successhave_or_not,nowmoney,finalsell);\n    }\n\n    //\n    function User_Sell(string memory _useraccount,string memory stock_name,string memory stock_price,uint256 stock_number) public  returns(uint){\n        finalmoney=nowmoney+finalsell;\n        finalmoney=finalmoney/1000;\n        for(uint i=0;i<Buy_length;i++){\n            if((keccak256(abi.encode(_useraccount))==keccak256(abi.encode(Buy[i].user_account)))&& (keccak256(abi.encode(stock_name))==keccak256(abi.encode(Buy[i].stock_name)))){\n                Buy[i].stock_number=Buy[i].stock_number-stock_number;\n            }\n        }\n        return finalmoney;\n    }\n\n    //User_Sell\n    /*\n    function stringToUint(string memory s) public pure returns(uint) { \n        bytes memory b = bytes(s);\n        uint result = 0;\n        uint count=0;\n        uint long=bytes(s).length;\n\n    \n        for(uint i = 0; i < b.length; i++) {\n            if(uint8(b[i]) >= 48 && uint8(b[i]) <= 57) {\n                result = result * 10 + (uint8(b[i]) - 48);\n                count ++;\n            }\n        }\n        \n        uint which;\n        for(uint i = 0; i < b.length; i++) {\n            if(uint8(b[i]) ==46) {\n                which=i+1;\n                break;\n            }\n        }\n        if(count==long){\n            result=result*100;\n        }\n        if((long-which)==1){\n             result=result*10;\n\n        }\n        if((long-which)==2){\n            result=result*1;\n        }\n        return result;\n    }\n    */\n}",
  "sourcePath": "/Users/wangmengxuan/Desktop/blockchain_stock/contracts/Stock.sol",
  "compiler": {
    "name": "solc",
    "version": "0.5.16+commit.9c3226ce.Emscripten.clang"
  },
  "schemaVersion": "3.4.4",
  "updatedAt": "2022-10-29T07:09:32.884Z",
  "networkType": "ethereum",
  "devdoc": {
    "methods": {}
  },
  "userdoc": {
    "methods": {}
  }
}