{
  "contractName": "User",
  "abi": [
    {
      "constant": true,
      "inputs": [
        {
          "internalType": "uint256",
          "name": "",
          "type": "uint256"
        }
      ],
      "name": "all_Useraccount",
      "outputs": [
        {
          "internalType": "bytes32",
          "name": "",
          "type": "bytes32"
        }
      ],
      "payable": false,
      "stateMutability": "view",
      "type": "function"
    },
    {
      "constant": true,
      "inputs": [
        {
          "internalType": "string",
          "name": "",
          "type": "string"
        }
      ],
      "name": "person",
      "outputs": [
        {
          "internalType": "string",
          "name": "user_name",
          "type": "string"
        },
        {
          "internalType": "string",
          "name": "user_password",
          "type": "string"
        },
        {
          "internalType": "uint256",
          "name": "user_dollars",
          "type": "uint256"
        },
        {
          "internalType": "uint256",
          "name": "user_token",
          "type": "uint256"
        },
        {
          "internalType": "uint256",
          "name": "user_stockvalue",
          "type": "uint256"
        },
        {
          "internalType": "uint256",
          "name": "user_RateOfReture",
          "type": "uint256"
        },
        {
          "internalType": "uint256",
          "name": "user_calltime",
          "type": "uint256"
        }
      ],
      "payable": false,
      "stateMutability": "view",
      "type": "function"
    },
    {
      "constant": false,
      "inputs": [
        {
          "internalType": "string",
          "name": "_useraccount",
          "type": "string"
        },
        {
          "internalType": "string",
          "name": "user_name",
          "type": "string"
        },
        {
          "internalType": "string",
          "name": "user_password",
          "type": "string"
        }
      ],
      "name": "userCreate",
      "outputs": [],
      "payable": false,
      "stateMutability": "nonpayable",
      "type": "function"
    },
    {
      "constant": true,
      "inputs": [
        {
          "internalType": "string",
          "name": "_useraccount",
          "type": "string"
        },
        {
          "internalType": "string",
          "name": "user_password",
          "type": "string"
        }
      ],
      "name": "get_User",
      "outputs": [
        {
          "internalType": "string",
          "name": "",
          "type": "string"
        }
      ],
      "payable": false,
      "stateMutability": "view",
      "type": "function"
    },
    {
      "constant": true,
      "inputs": [
        {
          "internalType": "string",
          "name": "_useraccount",
          "type": "string"
        }
      ],
      "name": "user_IsExist",
      "outputs": [
        {
          "internalType": "bool",
          "name": "",
          "type": "bool"
        }
      ],
      "payable": false,
      "stateMutability": "view",
      "type": "function"
    },
    {
      "constant": true,
      "inputs": [
        {
          "internalType": "string",
          "name": "_useraccount",
          "type": "string"
        },
        {
          "internalType": "string",
          "name": "user_name",
          "type": "string"
        },
        {
          "internalType": "string",
          "name": "user_password",
          "type": "string"
        }
      ],
      "name": "user_login",
      "outputs": [
        {
          "internalType": "string",
          "name": "",
          "type": "string"
        }
      ],
      "payable": false,
      "stateMutability": "view",
      "type": "function"
    },
    {
      "constant": false,
      "inputs": [
        {
          "internalType": "string",
          "name": "_useraccount",
          "type": "string"
        }
      ],
      "name": "user_get_money",
      "outputs": [
        {
          "internalType": "uint256",
          "name": "",
          "type": "uint256"
        }
      ],
      "payable": false,
      "stateMutability": "nonpayable",
      "type": "function"
    },
    {
      "constant": false,
      "inputs": [
        {
          "internalType": "string",
          "name": "_useraccount",
          "type": "string"
        },
        {
          "internalType": "uint256",
          "name": "finalmoney",
          "type": "uint256"
        }
      ],
      "name": "user_renew_money",
      "outputs": [],
      "payable": false,
      "stateMutability": "nonpayable",
      "type": "function"
    },
    {
      "constant": false,
      "inputs": [
        {
          "internalType": "string",
          "name": "_useraccount",
          "type": "string"
        }
      ],
      "name": "user_addtoken",
      "outputs": [],
      "payable": false,
      "stateMutability": "nonpayable",
      "type": "function"
    },
    {
      "constant": true,
      "inputs": [
        {
          "internalType": "string",
          "name": "_useraccount",
          "type": "string"
        }
      ],
      "name": "user_gettoken",
      "outputs": [
        {
          "internalType": "uint256",
          "name": "",
          "type": "uint256"
        }
      ],
      "payable": false,
      "stateMutability": "view",
      "type": "function"
    },
    {
      "constant": true,
      "inputs": [
        {
          "internalType": "string",
          "name": "_useraccount",
          "type": "string"
        }
      ],
      "name": "user_now_money",
      "outputs": [
        {
          "internalType": "uint256",
          "name": "",
          "type": "uint256"
        }
      ],
      "payable": false,
      "stateMutability": "view",
      "type": "function"
    },
    {
      "constant": true,
      "inputs": [
        {
          "internalType": "string",
          "name": "_useraccount",
          "type": "string"
        }
      ],
      "name": "user_password",
      "outputs": [
        {
          "internalType": "string",
          "name": "",
          "type": "string"
        }
      ],
      "payable": false,
      "stateMutability": "view",
      "type": "function"
    }
  ],
  "bytecode": "0x608060405234801561001057600080fd5b50611d0d806100206000396000f3fe608060405234801561001057600080fd5b50600436106100b45760003560e01c806370e19a361161007157806370e19a36146108225780637e9a2308146108f557806380d1649e14610a295780638f00dc7814610af8578063ca96d8b014610cc3578063fc16b23514610d05576100b4565b8063033774cb146100b9578063049fcfc51461018857806312471ff81461024d578063134981301461031c5780633b05ca671461057e5780636d3e4a6714610639575b600080fd5b610172600480360360208110156100cf57600080fd5b81019080803590602001906401000000008111156100ec57600080fd5b8201836020820111156100fe57600080fd5b8035906020019184600183028401116401000000008311171561012057600080fd5b91908080601f016020809104026020016040519081016040528093929190818152602001838380828437600081840152601f19601f820116905080830192505050505050509192919290505050610ec8565b6040518082815260200191505060405180910390f35b61024b6004803603604081101561019e57600080fd5b81019080803590602001906401000000008111156101bb57600080fd5b8201836020820111156101cd57600080fd5b803590602001918460018302840111640100000000831117156101ef57600080fd5b91908080601f016020809104026020016040519081016040528093929190818152602001838380828437600081840152601f19601f82011690508083019250505050505050919291929080359060200190929190505050610f47565b005b6103066004803603602081101561026357600080fd5b810190808035906020019064010000000081111561028057600080fd5b82018360208201111561029257600080fd5b803590602001918460018302840111640100000000831117156102b457600080fd5b91908080601f016020809104026020016040519081016040528093929190818152602001838380828437600081840152601f19601f820116905080830192505050505050509192919290505050610fbc565b6040518082815260200191505060405180910390f35b6105036004803603606081101561033257600080fd5b810190808035906020019064010000000081111561034f57600080fd5b82018360208201111561036157600080fd5b8035906020019184600183028401116401000000008311171561038357600080fd5b91908080601f016020809104026020016040519081016040528093929190818152602001838380828437600081840152601f19601f820116905080830192505050505050509192919290803590602001906401000000008111156103e657600080fd5b8201836020820111156103f857600080fd5b8035906020019184600183028401116401000000008311171561041a57600080fd5b91908080601f016020809104026020016040519081016040528093929190818152602001838380828437600081840152601f19601f8201169050808301925050505050505091929192908035906020019064010000000081111561047d57600080fd5b82018360208201111561048f57600080fd5b803590602001918460018302840111640100000000831117156104b157600080fd5b91908080601f016020809104026020016040519081016040528093929190818152602001838380828437600081840152601f19601f820116905080830192505050505050509192919290505050611032565b6040518080602001828103825283818151815260200191508051906020019080838360005b83811015610543578082015181840152602081019050610528565b50505050905090810190601f1680156105705780820380516001836020036101000a031916815260200191505b509250505060405180910390f35b6106376004803603602081101561059457600080fd5b81019080803590602001906401000000008111156105b157600080fd5b8201836020820111156105c357600080fd5b803590602001918460018302840111640100000000831117156105e557600080fd5b91908080601f016020809104026020016040519081016040528093929190818152602001838380828437600081840152601f19601f820116905080830192505050505050509192919290505050611415565b005b6108206004803603606081101561064f57600080fd5b810190808035906020019064010000000081111561066c57600080fd5b82018360208201111561067e57600080fd5b803590602001918460018302840111640100000000831117156106a057600080fd5b91908080601f016020809104026020016040519081016040528093929190818152602001838380828437600081840152601f19601f8201169050808301925050505050505091929192908035906020019064010000000081111561070357600080fd5b82018360208201111561071557600080fd5b8035906020019184600183028401116401000000008311171561073757600080fd5b91908080601f016020809104026020016040519081016040528093929190818152602001838380828437600081840152601f19601f8201169050808301925050505050505091929192908035906020019064010000000081111561079a57600080fd5b8201836020820111156107ac57600080fd5b803590602001918460018302840111640100000000831117156107ce57600080fd5b91908080601f016020809104026020016040519081016040528093929190818152602001838380828437600081840152601f19601f8201169050808301925050505050505091929192905050506114f8565b005b6108db6004803603602081101561083857600080fd5b810190808035906020019064010000000081111561085557600080fd5b82018360208201111561086757600080fd5b8035906020019184600183028401116401000000008311171561088957600080fd5b91908080601f016020809104026020016040519081016040528093929190818152602001838380828437600081840152601f19601f82011690508083019250505050505050919291929050505061169e565b604051808215151515815260200191505060405180910390f35b6109ae6004803603602081101561090b57600080fd5b810190808035906020019064010000000081111561092857600080fd5b82018360208201111561093a57600080fd5b8035906020019184600183028401116401000000008311171561095c57600080fd5b91908080601f016020809104026020016040519081016040528093929190818152602001838380828437600081840152601f19601f82011690508083019250505050505050919291929050505061172b565b6040518080602001828103825283818151815260200191508051906020019080838360005b838110156109ee5780820151818401526020810190506109d3565b50505050905090810190601f168015610a1b5780820380516001836020036101000a031916815260200191505b509250505060405180910390f35b610ae260048036036020811015610a3f57600080fd5b8101908080359060200190640100000000811115610a5c57600080fd5b820183602082011115610a6e57600080fd5b80359060200191846001830284011164010000000083111715610a9057600080fd5b91908080601f016020809104026020016040519081016040528093929190818152602001838380828437600081840152601f19601f820116905080830192505050505050509192919290505050611839565b6040518082815260200191505060405180910390f35b610c4860048036036040811015610b0e57600080fd5b8101908080359060200190640100000000811115610b2b57600080fd5b820183602082011115610b3d57600080fd5b80359060200191846001830284011164010000000083111715610b5f57600080fd5b91908080601f016020809104026020016040519081016040528093929190818152602001838380828437600081840152601f19601f82011690508083019250505050505050919291929080359060200190640100000000811115610bc257600080fd5b820183602082011115610bd457600080fd5b80359060200191846001830284011164010000000083111715610bf657600080fd5b91908080601f016020809104026020016040519081016040528093929190818152602001838380828437600081840152601f19601f8201169050808301925050505050505091929192905050506118af565b6040518080602001828103825283818151815260200191508051906020019080838360005b83811015610c88578082015181840152602081019050610c6d565b50505050905090810190601f168015610cb55780820380516001836020036101000a031916815260200191505b509250505060405180910390f35b610cef60048036036020811015610cd957600080fd5b8101908080359060200190929190505050611a8a565b6040518082815260200191505060405180910390f35b610dbe60048036036020811015610d1b57600080fd5b8101908080359060200190640100000000811115610d3857600080fd5b820183602082011115610d4a57600080fd5b80359060200191846001830284011164010000000083111715610d6c57600080fd5b91908080601f016020809104026020016040519081016040528093929190818152602001838380828437600081840152601f19601f820116905080830192505050505050509192919290505050611aab565b60405180806020018060200188815260200187815260200186815260200185815260200184815260200183810383528a818151815260200191508051906020019080838360005b83811015610e20578082015181840152602081019050610e05565b50505050905090810190601f168015610e4d5780820380516001836020036101000a031916815260200191505b50838103825289818151815260200191508051906020019080838360005b83811015610e86578082015181840152602081019050610e6b565b50505050905090810190601f168015610eb35780820380516001836020036101000a031916815260200191505b50995050505050505050505060405180910390f35b60006002826040518082805190602001908083835b60208310610f005780518252602082019150602081019050602083039250610edd565b6001836020036101000a0380198251168184511680821785525050505050509050019150509081526020016040518091039020600201546001819055506001549050919050565b806002836040518082805190602001908083835b60208310610f7e5780518252602082019150602081019050602083039250610f5b565b6001836020036101000a0380198251168184511680821785525050505050509050019150509081526020016040518091039020600201819055505050565b60006002826040518082805190602001908083835b60208310610ff45780518252602082019150602081019050602083039250610fd1565b6001836020036101000a0380198251168184511680821785525050505050509050019150509081526020016040518091039020600201549050919050565b60606000600190506000600190506002866040518082805190602001908083835b602083106110765780518252602082019150602081019050602083039250611053565b6001836020036101000a0380198251168184511680821785525050505050509050019150509081526020016040518091039020600001604051602001808280546001816001161561010002031660029004801561110a5780601f106110e857610100808354040283529182019161110a565b820191906000526020600020905b8154815290600101906020018083116110f6575b505091505060405160208183030381529060405280519060200120856040516020018082805190602001908083835b6020831061115c5780518252602082019150602081019050602083039250611139565b6001836020036101000a03801982511681845116808217855250505050505090500191505060405160208183030381529060405280519060200120146111a55760009150611307565b6002866040518082805190602001908083835b602083106111db57805182526020820191506020810190506020830392506111b8565b6001836020036101000a0380198251168184511680821785525050505050509050019150509081526020016040518091039020600101604051602001808280546001816001161561010002031660029004801561126f5780601f1061124d57610100808354040283529182019161126f565b820191906000526020600020905b81548152906001019060200180831161125b575b505091505060405160208183030381529060405280519060200120846040516020018082805190602001908083835b602083106112c1578051825260208201915060208101905060208303925061129e565b6001836020036101000a038019825116818451168082178552505050505050905001915050604051602081830303815290604052805190602001201461130657600090505b5b6001151582151514801561131f575060011515811515145b15611363576040518060400160405280600d81526020017f6c6f67696e2073756363657373000000000000000000000000000000000000008152509250505061140e565b6000151582151514156113af576040518060400160405280600d81526020017f75736572206e6f742065786974000000000000000000000000000000000000008152509250505061140e565b600115158215151480156113c7575060001515811515145b1561140b576040518060400160405280600e81526020017f70617373776f7264206572726f720000000000000000000000000000000000008152509250505061140e565b50505b9392505050565b60016002826040518082805190602001908083835b6020831061144d578051825260208201915060208101905060208303925061142a565b6001836020036101000a038019825116818451168082178552505050505050905001915050908152602001604051809103902060030154016002826040518082805190602001908083835b602083106114bb5780518252602082019150602081019050602083039250611498565b6001836020036101000a03801982511681845116808217855250505050505090500191505090815260200160405180910390206003018190555050565b60006020840151905060006001905060008090505b60038054905081101561154b57826003828154811061152857fe5b9060005260206000200154141561153e57600091505b808060010191505061150d565b506001151581151514156116975760038290806001815401808255809150509060018203906000526020600020016000909192909190915055506040518060e00160405280858152602001848152602001621e84808152602001600081526020016000815260200160008152602001428152506002866040518082805190602001908083835b602083106115f457805182526020820191506020810190506020830392506115d1565b6001836020036101000a03801982511681845116808217855250505050505090500191505090815260200160405180910390206000820151816000019080519060200190611643929190611c33565b506020820151816001019080519060200190611660929190611c33565b5060408201518160020155606082015181600301556080820151816004015560a0820151816005015560c082015181600601559050505b5050505050565b6000806002836040518082805190602001908083835b602083106116d757805182526020820191506020810190506020830392506116b4565b6001836020036101000a038019825116818451168082178552505050505050905001915050908152602001604051809103902060000180546001816001161561010002031660029004905014159050919050565b60606002826040518082805190602001908083835b602083106117635780518252602082019150602081019050602083039250611740565b6001836020036101000a03801982511681845116808217855250505050505090500191505090815260200160405180910390206001018054600181600116156101000203166002900480601f01602080910402602001604051908101604052809291908181526020018280546001816001161561010002031660029004801561182d5780601f106118025761010080835404028352916020019161182d565b820191906000526020600020905b81548152906001019060200180831161181057829003601f168201915b50505050509050919050565b60006002826040518082805190602001908083835b60208310611871578051825260208201915060208101905060208303925061184e565b6001836020036101000a0380198251168184511680821785525050505050509050019150509081526020016040518091039020600301549050919050565b60606002836040518082805190602001908083835b602083106118e757805182526020820191506020810190506020830392506118c4565b6001836020036101000a0380198251168184511680821785525050505050509050019150509081526020016040518091039020600101604051602001808280546001816001161561010002031660029004801561197b5780601f1061195957610100808354040283529182019161197b565b820191906000526020600020905b815481529060010190602001808311611967575b505091505060405160208183030381529060405280519060200120826040516020018082805190602001908083835b602083106119cd57805182526020820191506020810190506020830392506119aa565b6001836020036101000a038019825116818451168082178552505050505050905001915050604051602081830303815290604052805190602001201415611a4b576040518060400160405280600781526020017f73756363657373000000000000000000000000000000000000000000000000008152509050611a84565b6040518060400160405280600481526020017f6661696c0000000000000000000000000000000000000000000000000000000081525090505b92915050565b60038181548110611a9757fe5b906000526020600020016000915090505481565b600281805160208101820180518482526020830160208501208183528095505050505050600091509050806000018054600181600116156101000203166002900480601f016020809104026020016040519081016040528092919081815260200182805460018160011615610100020316600290048015611b6d5780601f10611b4257610100808354040283529160200191611b6d565b820191906000526020600020905b815481529060010190602001808311611b5057829003601f168201915b505050505090806001018054600181600116156101000203166002900480601f016020809104026020016040519081016040528092919081815260200182805460018160011615610100020316600290048015611c0b5780601f10611be057610100808354040283529160200191611c0b565b820191906000526020600020905b815481529060010190602001808311611bee57829003601f168201915b5050505050908060020154908060030154908060040154908060050154908060060154905087565b828054600181600116156101000203166002900490600052602060002090601f016020900481019282601f10611c7457805160ff1916838001178555611ca2565b82800160010185558215611ca2579182015b82811115611ca1578251825591602001919060010190611c86565b5b509050611caf9190611cb3565b5090565b611cd591905b80821115611cd1576000816000905550600101611cb9565b5090565b9056fea265627a7a72315820b22cf70f8ddb20927bb124deded82d2be9e23266e25fa992918f292c27b2b93c64736f6c63430005100032",
  "source": "pragma solidity >=0.4.22 <0.9.0;\n\nimport \"./Stock.sol\";\n\ncontract User{\n    //Stock public St;\n    string _useraccount; //\n    uint dollars;\n    \n\n    struct UserInfoStruct{ //\n        string user_name; //\n        string user_password; //\n        uint user_dollars; //\n\n        uint user_token;//\n        uint user_stockvalue; //\n        uint user_RateOfReture; //\n        uint user_calltime;\n    }\n    /*\n    constructor(address st)public{\n        St=Stock(st);\n    }\n    */\n    mapping(string=> UserInfoStruct) public person;\n\n    bytes32[] public all_Useraccount; //\n    \n    //\n    function userCreate(string memory _useraccount,string memory user_name,string memory user_password)public{ \n        bytes32 bytes_useraccount;\n        assembly{\n            bytes_useraccount := mload(add(_useraccount,32))\n        }\n        bool user_state=true;\n        for(uint i=0;i<all_Useraccount.length;i++){\n            if(all_Useraccount[i]==bytes_useraccount){\n                user_state=false;\n            }\n        }\n        if(user_state==true){\n            all_Useraccount.push(bytes_useraccount);\n            person[_useraccount]=(UserInfoStruct(user_name,user_password,2000000,0,0,0,block.timestamp));\n        }\n    }    \n    // \n    function get_User(string memory _useraccount,string memory user_password)public view returns(string memory){\n        if(keccak256(abi.encodePacked(user_password))==keccak256(abi.encodePacked(person[_useraccount].user_password))){\n            return \"success\";\n        }\n        else{\n            return \"fail\";\n        }\n    }\n    //\n    function user_IsExist(string memory _useraccount) public view returns(bool){\n        return bytes(person[_useraccount].user_name).length !=0;\n    }\n\n    //\n    function user_login(string memory _useraccount,string memory user_name,string memory user_password)public view returns(string memory){\n        //\n        bool exist=true;\n        bool password_correct=true;\n\n        if(keccak256(abi.encodePacked(user_name))!=keccak256(abi.encodePacked(person[_useraccount].user_name))){\n            exist=false;\n        }\n        else if(keccak256(abi.encodePacked(user_password))!=keccak256(abi.encodePacked(person[_useraccount].user_password))){\n            password_correct=false;\n        }\n\n        if(exist==true && password_correct==true){\n            return \"login success\";\n        }\n        else if(exist==false){\n            return \"user not exit\";\n        }\n        else if(exist==true && password_correct==false){\n            return \"password error\";\n        }\n    }\n    \n    //\n    function user_get_money(string memory _useraccount) public  returns(uint){\n        dollars=person[_useraccount].user_dollars;\n        return dollars;\n        //return (dollars,person[_useraccount].user_token);\n    }\n     \n    //\n    function user_renew_money(string memory _useraccount,uint finalmoney) public {\n        person[_useraccount].user_dollars=finalmoney;\n    }\n    \n    //\n    function user_addtoken(string memory _useraccount) public {\n        person[_useraccount].user_token=person[_useraccount].user_token+1;\n    }\n\n    //\n    function user_gettoken(string memory _useraccount) public view returns(uint){\n        return person[_useraccount].user_token;\n    }\n\n    //\n     function user_now_money(string memory _useraccount) public view returns(uint){\n        return person[_useraccount].user_dollars;\n    }\n\n    //\n    function user_password(string memory _useraccount) public view returns(string memory){\n            return person[_useraccount].user_password;\n    }\n}\n\n",
  "sourcePath": "/Users/wangmengxuan/Desktop/blockchain_stock/contracts/User.sol",
  "compiler": {
    "name": "solc",
    "version": "0.5.16+commit.9c3226ce.Emscripten.clang"
  },
  "schemaVersion": "3.4.4",
  "updatedAt": "2022-09-30T04:55:09.145Z",
  "networkType": "ethereum",
  "devdoc": {
    "methods": {}
  },
  "userdoc": {
    "methods": {}
  }
}